{
  "transactions": [
    {
      "hash": "0xa5be3faf7a0c9d94b5693b663ddd6bbb53bde5fea7481a3b37f90ae550db5116",
      "transactionType": "CALL",
      "contractName": null,
      "contractAddress": "0x77109F7F6E510F2a08378b2aa919C8B0d995B1A1",
      "function": "mintNft(string)",
      "arguments": [
        "ipfs://bafybeig37ioir76s7mg5oobetncojcm3c3hxasyd4rvid4jqhy4gkaheg4/?filename=0-PUG.json"
      ],
      "transaction": {
        "from": "0x2a42fd00F3e2d19D446960d1F247544D6911b77e",
        "to": "0x77109F7F6E510F2a08378b2aa919C8B0d995B1A1",
        "gas": "0x40fd9",
        "value": "0x0",
        "input": "0xda86f4a900000000000000000000000000000000000000000000000000000000000000200000000000000000000000000000000000000000000000000000000000000057697066733a2f2f62616679626569673337696f6972373673376d67356f6f6265746e636f6a636d3363336878617379643472766964346a71687934676b61686567342f3f66696c656e616d653d302d5055472e6a736f6e000000000000000000",
        "nonce": "0x19",
        "chainId": "0xaa36a7"
      },
      "additionalContracts": [],
      "isFixedGasLimit": false
    }
  ],
  "receipts": [
    {
      "status": "0x1",
      "cumulativeGasUsed": "0xe063cd",
      "logs": [
        {
          "address": "0x77109F7F6E510F2a08378b2aa919C8B0d995B1A1",
          "topics": [
            "0xddf252ad1be2c89b69c2b068fc378daa952ba7f163c4a11628f55a4df523b3ef",
            "0x0000000000000000000000000000000000000000000000000000000000000000",
            "0x0000000000000000000000002a42fd00f3e2d19d446960d1f247544d6911b77e",
            "0x0000000000000000000000000000000000000000000000000000000000000000"
          ],
          "data": "0x",
          "blockHash": "0x0f9a9cd50ec0ffad688186ebc39ab59eac130e51d1d3544b2d6f11f41160909f",
          "blockNumber": "0x6aa4e7",
          "transactionHash": "0xa5be3faf7a0c9d94b5693b663ddd6bbb53bde5fea7481a3b37f90ae550db5116",
          "transactionIndex": "0x38",
          "logIndex": "0x85",
          "removed": false
        }
      ],
      "logsBloom": "0x00000000000000000000000000000000000000000000000000000000000000000000000000000000000000000000000000000000000000000000000000000000000000000000000000000008004000000000000000000000000000000001000000000000020000200000000000000800000200000000000000000010000000000000000000000000000000000000000000000000000000000000000000000000000000000000000000000000000000000000000000000000000000000000000000000002000000000000000000000000000000000000000000000001000020000000000000000000000000000000000000400000000000000000000000000000",
      "type": "0x2",
      "transactionHash": "0xa5be3faf7a0c9d94b5693b663ddd6bbb53bde5fea7481a3b37f90ae550db5116",
      "transactionIndex": "0x38",
      "blockHash": "0x0f9a9cd50ec0ffad688186ebc39ab59eac130e51d1d3544b2d6f11f41160909f",
      "blockNumber": "0x6aa4e7",
      "gasUsed": "0x2c702",
      "effectiveGasPrice": "0x3aadc7cd2",
      "from": "0x2a42fd00F3e2d19D446960d1F247544D6911b77e",
      "to": "0x77109F7F6E510F2a08378b2aa919C8B0d995B1A1",
      "contractAddress": null
    }
  ],
  "libraries": [],
  "pending": [],
  "returns": {},
  "timestamp": 1730450269,
  "chain": 11155111,
  "commit": "f3027af"
}